:100000000C942A000C9447000C94FD040C944700B7
:100010000C9497070C94C0070C9473060C949C06E0
:100020000C94C5060C94EE060C943A050C946305EA
:100030000C9447000C9447000C9447000C94470024
:100040000C94D9030C9447000C9447000C9447007F
:100050000C94470011241FBECFE5D8E0DEBFCDBF12
:1000600010E0A0E6B0E0E8EBF0E102C005900D92F0
:10007000AC37B107D9F720E0ACE7B0E001C01D9282
:10008000A839B207E1F70E94E9070C945A080C94CA
:1000900000008091840090918500019690938500E6
:1000A00080938400409184005091850025ED38E7CD
:1000B000429FC001439F900D529F900D1124492FE4
:1000C0004695469530E4389F302D1124340F86959F
:1000D000869520E4299F202D1124280F24383105EE
:1000E00018F481E080938100409184005091850054
:1000F00023E639EC429FC001439F900D529F900D23
:10010000112480FB9795879597F9853B914018F4CA
:1001100081E080938000409184005091850025ED1E
:1001200038E7429FC001439F900D529F900D1124CC
:10013000582F5295550F507E492F46954695469516
:10014000352F340F9295990F907E869586958695DA
:10015000292F280F2234310518F481E080937F0085
:100160008091840090918500883B9B4020F0109204
:100170008500109284000895809182009091830000
:1001800001969093830080938200809182009091E9
:100190008300499748F081E080937E0080937D0042
:1001A00010928300109282000895CF93DF9300D0C5
:1001B00000D000D0CDB7DEB741E060E080E00E9423
:1001C000E10341E061E080E00E94E1036FEF82E043
:1001D0000E941F0440E062E080E00E94E10340E0F2
:1001E00063E080E00E94E10341E062E080E00E9481
:1001F0002F0441E063E080E00E942F0441E065E0CD
:1002000083E00E94E10386E0E2E6F0E0DE01119681
:1002100001900D928A95E1F7CE0101960E940605A4
:1002200089E490E00E94350566E082E00E941707AD
:1002300089EF0E945E0761E08CEB90E00E948907E5
:1002400081E00E94710763E085E00E948C0562E016
:1002500080E00E94FD05609160007091610080E087
:100260000E94E0056FE382E00F900F900F900F90D7
:100270000F900F90DF91CF910C946D04CF93DF938B
:100280000F92CDB7DEB70AE010E080918100813097
:10029000A9F1809180008130D9F180917F00813077
:1002A00009F441C080917E00813009F453C08091EF
:1002B0007D00813051F71982AE014F5F5F4F63E0DF
:1002C00080E00E947D048981811112C060916000EC
:1002D000709161006F30710510F46FE070E06F5045
:1002E0007109609360007093610080E00E94E005F6
:1002F00010927D0080918100813059F660E080E0AD
:100300000E94A3041092810080918000813029F620
:1003100061E080E00E94A3041092800080917F0041
:10032000813009F0BFCF80917C0090E00196B80148
:100330000E94F10780937C0088599F4FFC016081E7
:1003400082E00E946D0410927F0080917E008130D7
:1003500009F0ADCF1982AE014F5F5F4F62E080E0E0
:100360000E947D048981811112C0609160007091AA
:100370006100613F710510F060EF70E0615F7F4FD9
:10038000609360007093610080E00E94E00510922D
:100390007E008DCFCF93DF9300D00F92CDB7DEB725
:1003A00089836A834B8340E00E94E1038B8141E0B3
:1003B000811559F08B818150823030F00F900F9071
:1003C0000F90DF91CF91089540E06A8189810F906D
:1003D0000F900F90DF91CF910C942F04CF93DF9368
:1003E0000F92CDB7DEB79FEF9983433028F08FEFA0
:1003F0000F90DF91CF910895AE014F5F5F4F0E9444
:100400007D0489810F90DF91CF910895CF93DF9381
:1004100000D0CDB7DEB789836A8341E00E94E10353
:1004200040E06A8189810F900F90DF91CF910C9409
:100430002F0441E00C942F0440E00C942F04089505
:100440000895CF93DF930F92CDB7DEB7898340E055
:1004500060E081E00E942F0440E061E081E00E94C2
:100460002F04698183E00E946D0441E062E081E035
:100470000E942F0440E062E081E00F90DF91CF9175
:100480000C942F0441E060E081E00E94E10341E030
:1004900061E081E00E94E10341E062E081E00E94CE
:1004A000E1036FEF83E00E941F042FEB8AED90E0E1
:1004B000215080409040E1F700C0000080E30E949E
:1004C00021028FEC97E00197F1F700C000008FE068
:1004D0000E9421028FEC97E00197F1F700C0000025
:1004E00081E00E9421028FE99FE00197F1F700C0AF
:1004F000000086E00E9421028FEC97E00197F1F75F
:1005000000C000000895CF93DF930F92CDB7DEB700
:10051000898341E060E081E00E942F0440E061E0D7
:1005200081E00E942F04698183E00E946D0441E014
:1005300062E081E00E942F0440E062E081E00F90E1
:10054000DF91CF910C942F040F931F93CF938C01C5
:10055000009771F0FC018081811551F0C0E00E948C
:100560008302CF5FF801EC0FF11D80818111F7CF7D
:10057000CF911F910F910895813078F061F480E45C
:10058000860F80680E9421028FEC97E00197F1F7B7
:1005900000C00000089580E8F5CF862F8068F2CF74
:1005A0004F925F926F927F92AF92BF92CF92DF9203
:1005B000EF92FF921F93CF93DF93CDB7DEB72A97C9
:1005C0000FB6F894DEBF0FBECDBF6B017C015E019C
:1005D0008FEFA81AB80A8AE0F50111928A95E9F717
:1005E000C114D104E104F104A1F15CF48DE20E9494
:1005F0008302F094E094D094C094C11CD11CE11CFF
:10060000F11C10E08AE0482E512C612C712CB601AF
:10061000C7019201A3010E940508F501E10FF11D38
:10062000605D608369017A011F5FC114D104E10438
:10063000F10469F7FE01E10FF11D80810E94830240
:100640001150FE01E10FF11D80810E9483021150C3
:10065000F1CF80E32A960FB6F894DEBF0FBECDBF70
:10066000DF91CF911F91FF90EF90DF90CF90BF90DF
:10067000AF907F906F905F904F900C9483020F9398
:100680001F93CF93DF93683028F0DF91CF911F91B4
:100690000F910895C82F862F880F880F880F8064C8
:1006A000D92F0E9421028E01085F1F4F89910E945D
:1006B0008302C017D107D1F780E80E9421028FEC96
:1006C00097E00197F1F700C00000DF91CF911F91F3
:1006D0000F91089541E00C94E103413011F008F0CE
:1006E00008950C942F04413029F008F0089541E05A
:1006F0000C942F0440E00C942F040C94A3046FEF8F
:100700000C941F044A3068F491E061110BC0692F0A
:100710006195E42FF0E0EE58FF4F908169270C942B
:100720006D04089590E0F3CF611103C06FEF0C9456
:100730006D0460E00C946D04FC01892BF1F097B11D
:100740009F738081892B87B997B19F7D8281892B87
:1007500087B996B1987F8481892B86B986819781E4
:10076000809761F0359896B1977F8285892B86B9FD
:1007700096B19F778485892B86B90895359A90B76D
:100780009F718085892B80BFEECF97B18F71907E4E
:10079000892B87B9369A86B1349A87B184B195B1DD
:1007A000089597B18F71907E892B87B9369A0895F5
:1007B00008958F939F9387B184B195B19F918F9145
:1007C00018958430C0F46830B0F44130A9F098F442
:1007D00021E001C0220F6A95EAF72095823039F1B5
:1007E000833031F0813039F18AB382238ABB089596
:1007F00081B3822381BB089521E001C0220F6A9555
:10080000EAF7823061F0833031F0813061F08AB3F1
:10081000822B8ABB089581B3822B81BB089584B358
:10082000822B84BB089587B3822B87BB089584B342
:10083000822384BB089587B3822387BB08958230C7
:1008400049F020F4811541F067BB0895833031F4FD
:1008500061BB089564BB08956ABB08950895843010
:10086000C0F46830B0F44130A9F098F421E001C040
:10087000220F6A95EAF72095823039F1833031F002
:10088000813039F18BB382238BBB089582B38223ED
:1008900082BB089521E001C0220F6A95EAF78230F9
:1008A00061F0833031F0813061F08BB3822B8BBBF0
:1008B000089582B3822B82BB089585B3822B85BBBA
:1008C000089588B3822B88BB089585B3822385BBA6
:1008D000089588B3822388BB0895823049F020F4BC
:1008E000811541F068BB0895833031F462BB0895EF
:1008F00065BB08956BBB0895089541155105B1F08E
:10090000683080F48230D1F0A8F48115C9F086B344
:1009100090E002C0959587956A95E2F78170FA019B
:10092000808308958FEFFA01808308958FEF80937D
:10093000000008958330B1F780B3EACF83B3E8CFE6
:1009400089B3E6CF08958430A0F4683090F421E0B4
:1009500001C0220F6A95EAF7823061F0833031F0EE
:10096000813061F08BB382278BBB089582B38227DD
:1009700082BB089585B3822785BB089588B38227FB
:1009800088BB0895089581110BC0613050F485B77C
:100990008E7F85BF85B78D7F85BF8BB780648BBF0A
:1009A000089559F0623081F06330B9F785B78160FE
:1009B00085BF85B7826085BFF0CF85B7816085BF71
:1009C00085B78D7F85BFE9CF85B78E7F85BF85B71A
:1009D000826085BFE2CF813020F48BB78F7B8BBFE5
:1009E000089519F0823029F008958BB78F778BBF67
:1009F00008958BB78F7D8BBF089518958FB780684A
:100A00008FBF08958FB78F778FBF0895FC01892B13
:100A1000B1F091819F7C8281892B95819CBF9381CC
:100A2000913071F099B79E7F99BF9481913071F0A8
:100A300099B79D7F99BF887F9081892B83BF089547
:100A400099B7916099BF9481913091F799B792606D
:100A500099BFF1CF8CBF089582B7089582BF0895E2
:100A600080938800909389000895809386009093E6
:100A7000870008951F920F920FB60F9211242F93A3
:100A80003F934F935F936F937F938F939F93AF9316
:100A9000BF93EF93FF93E0918600F091870030972A
:100AA00009F00995FF91EF91BF91AF919F918F91BF
:100AB0007F916F915F914F913F912F910F900FBE5A
:100AC0000F901F9018951F920F920FB60F9211243E
:100AD0002F933F934F935F936F937F938F939F9346
:100AE000AF93BF93EF93FF93E0918800F09189005B
:100AF000309709F00995FF91EF91BF91AF919F91C8
:100B00008F917F916F915F914F913F912F910F90B6
:100B10000FBE0F901F9018959FB59C7F9FBD9EB5EF
:100B2000977E9EBD9FB5282F2370922B9FBD9EB5AB
:100B3000880F8871982B9EBD683040F48EB5887FF1
:100B40008EBD8EB5862B8EBD60938A001DBC1CBCED
:100B50001BBC1ABC19BC18BC17BC16BC08951FBC22
:100B60001EBC1DBC1CBC1BBC1ABC19BC18BC17BCD1
:100B700016BC89B78B7F89BF89B78F7E89BF89B73C
:100B8000877F89BF89B78F7D89BF10928A000895BA
:100B90008EB5887F8EBD8EB590918A00892B8EBDD3
:100BA00008958EB5887F8EBD08959DBD8CBD089536
:100BB000009729F02CB53DB5FC01208331830895C1
:100BC000813018F47BBD6ABD089509F0089579BDA0
:100BD00068BD08956115710549F0813030F48AB51A
:100BE0009BB5FB0180839183089509F0089588B532
:100BF00099B5FB01808391830895643070F481304E
:100C000058F48FB58F738FBD8FB56295660F660FE1
:100C1000607C682B6FBD089509F008958FB58F7CB7
:100C20008FBD8FB56295607F682B6FBD089597BDAE
:100C300086BD0895009729F026B537B5FC012083BD
:100C400031830895813021F08EB58F7B8EBD08955C
:100C50008EB580648EBD0895811521F08EB58068B3
:100C60008EBD08958EB58F778EBD0895823069F060
:100C700030F4811571F089B7806189BF08958330A0
:100C800061F489B7806289BF089589B7886089BF98
:100C9000089589B7846089BF08950895823069F006
:100CA00030F4811571F089B78F7E89BF0895833044
:100CB00061F489B78F7D89BF089589B7877F89BF20
:100CC000089589B78B7F89BF08950895009751F0E3
:100CD000643040F4E62FF0E0EE0FFF1FE557FF4FC2
:100CE0008083918308951F920F920FB60F92112463
:100CF0002F933F934F935F936F937F938F939F9324
:100D0000AF93BF93EF93FF93E0919100F091920026
:100D1000309709F00995FF91EF91BF91AF919F91A5
:100D20008F917F916F915F914F913F912F910F9094
:100D30000FBE0F901F9018951F920F920FB60F9233
:100D400011242F933F934F935F936F937F938F93D0
:100D50009F93AF93BF93EF93FF93E0918D00F0913A
:100D60008E00309709F00995FF91EF91BF91AF91F7
:100D70009F918F917F916F915F914F913F912F91B3
:100D80000F900FBE0F901F9018951F920F920FB6E5
:100D90000F9211242F933F934F935F936F937F9301
:100DA0008F939F93AF93BF93EF93FF93E0918F0047
:100DB000F0919000309709F00995FF91EF91BF9164
:100DC000AF919F918F917F916F915F914F913F91E3
:100DD0002F910F900FBE0F901F9018951F920F929A
:100DE0000FB60F9211242F933F934F935F936F93FE
:100DF0007F938F939F93AF93BF93EF93FF93E09174
:100E00008B00F0918C00309709F00995FF91EF91DC
:100E1000BF91AF919F918F917F916F915F914F9112
:100E20003F912F910F900FBE0F901F901895843017
:100E300060F495B59F7B95BD95B5977F95BD823044
:100E4000A1F0833079F08130A1F0683040F485B5AD
:100E5000887F85BD85B5862B85BD6093930014BCC6
:100E600013BC089585B5806485BD85B5886085BD52
:100E7000ECCF85B5806485BDE8CF15BC14BC13BC30
:100E800089B78F7B89BF89B78F7789BF109293000D
:100E9000089585B5887F85BD85B590919300892B90
:100EA00085BD089585B5887F85BD089584BD089565
:100EB000009719F024B5FC012083089583BD08959F
:100EC000009719F023B5FC0120830895843040F485
:100ED00095B59F7C95BD95B58295807F892B85BD05
:100EE0000895813030F009F0089589B7806889BF8E
:100EF000089589B7806489BF0895813030F009F082
:100F0000089589B78F7789BF089589B78F7B89BF87
:100F10000895009711F0623008F00895E62FF0E090
:100F2000EE0FFF1FEC56FF4F8083918308951F92B1
:100F30000F920FB60F9211242F933F934F935F930D
:100F40006F937F938F939F93AF93BF93EF93FF9391
:100F5000E0919600F0919700309709F00995FF9184
:100F6000EF91BF91AF919F918F917F916F915F9121
:100F70004F913F912F910F900FBE0F901F9018959A
:100F80001F920F920FB60F9211242F933F934F93FE
:100F90005F936F937F938F939F93AF93BF93EF93E1
:100FA000FF93E0919400F0919500309709F0099536
:100FB000FF91EF91BF91AF919F918F917F916F9131
:100FC0005F914F913F912F910F900FBE0F901F9007
:100FD00018950E94D50078940E943E0180E090E030
:100FE000089597FB072E16F4009407D077FD09D0DB
:100FF0000E94240807FC05D03EF4909581959F4FF0
:101000000895709561957F4F0895052E97FB1EF406
:1010100000940E941C0857FD07D00E94380807FC66
:1010200003D04EF40C941C085095409530952195B2
:101030003F4F4F4F5F4F0895909580957095619504
:101040007F4F8F4F9F4F0895AA1BBB1B51E107C0D5
:10105000AA1FBB1FA617B70710F0A61BB70B881F48
:10106000991F5A95A9F780959095BC01CD010895D7
:10107000A1E21A2EAA1BBB1BFD010DC0AA1FBB1F9C
:10108000EE1FFF1FA217B307E407F50720F0A21B0E
:10109000B30BE40BF50B661F771F881F991F1A947B
:1010A00069F760957095809590959B01AC01BD01A5
:0810B000CF010895F894FFCF71
:1010B800800003080000017C3F065B4F666D7D07DA
:0C10C8007F6F3F065B4F666D7D077F6FFA
:00000001FF
